:100000006F00202300000000AA020000A8020000E8
:1000100000000000000000000000000000000000E0
:1000200000000000000000000000000000000000D0
:10003000A802000000000000A8020000000000006C
:10004000A8020000A8020000A8020000A802000008
:10005000A8020000A8020000A8020000A8020000F8
:10006000A8020000A8020000A8020000A8020000E8
:10007000A8020000A8020000A8020000A8020000D8
:10008000A8020000A8020000A8020000A8020000C8
:10009000A8020000A8020000A80200000000000062
:1000A0006340050663C60506138605009305050033
:1000B0001305F0FF630C060293061000637AB60086
:1000C0006358C0001316160093961600E36AB6FE36
:1000D0001305000063E6C500B385C5403365D50050
:1000E00093D6160013561600E39606FE67800000AE
:1000F00093820000EFF05FFB13850500678002002C
:100100003305A0406348B000B305B0406FF0DFF99D
:10011000B305B04093820000EFF01FF93305A04013
:10012000678002009382000063CA0500634C0500EB
:10013000EFF09FF71385050067800200B305B0401C
:10014000E35805FE3305A040EFF01FF63305B0403D
:1001500067800200B7F700E09C4737F700E03E9564
:100160001C47898FE3CE07FE8280B707002003C7B4
:100170000700411106C622C426C201CBB7170140B1
:1001800093870740B706100094CB371401401C40FA
:100190003AC0FD7493F7F7F01CC01C409384F40F31
:1001A0003795040093E707011CC01C401305053E6A
:1001B000E58F1CC01C4093E707101CC0613FB707C8
:1001C0000400379504001CC81305053E6137B707C6
:1001D0000200379504001CC81305053EA53F89475A
:1001E000379504001CC81305053EAD379147379578
:1001F00004001CC81305053EB13F1C40024793F79D
:10020000F7F01CC01C4093E707041CC01C40E58F9E
:100210001CC01C4093E707401CC019C7B71701401A
:1002200093870740414798CBB24022449244410112
:100230008280970100209381E15C13810100130506
:100240000008731005308D4617050000130585DB87
:10025000558D73105530170500201305A5DA9385C9
:10026000418001466356B50010C11105E34EB5FE4D
:1002700013050044970500209385C5D81706002074
:10028000130646D86388C500144194C11105910531
:10029000E39AC5FEB7F700E0054798C39307402FE0
:1002A000739017347300203001A0371702401C47A9
:1002B000B7068000D58F1CC7B727024023A00700D0
:1002C00037070800B717024023A2070013071708D3
:1002D00098C337079F0098C7B70700E09387870F39
:1002E00023A00700B70700E09387470F1307000814
:1002F00098C38280011106CE22CC26CA753FB7175B
:100300000240984F37140140370608001367470032
:1003100098CF984FC14405651367070198CF984F50
:10032000130585BB1367070298CFB7170140938762
:10033000078094437D771307F70FF98E94C3944396
:1003400093E6064094C3944393F6F6F094C3944323
:1003500093E6060494C31440B707F1FFFD173EC0AF
:10036000FD8E14C01440D18E14C004C8144093F6FE
:10037000F6F014C0144093E6060414C01440758FC0
:1003800018C018401367074018C0E9331844824763
:10039000418B05C71304044037070020854623001E
:1003A000D70018400565130585BBF98F1CC01C409C
:1003B0004167D98F1CC0793B04C8B7F700E0884774
:1003C0008D45DD31B717014093870780B71601408F
:1003D00098478046AA84098311803EC0058B058812
:1003E000B7F600E088468D453AC27D3912476373FF
:1003F000950081448247B716014090479446118A80
:10040000B337C000C18A3EC2B337D0003EC419E63C
:1004100011C736C82AC6913BC246324589C601E497
:100420002AC6A133324537470F00B306954013075C
:1004300007246363D700268522441247AA844DB758
:00000001FF
